:040000000CEF00F011
:10000800FACF23F0FBCF24F0E9CF25F0B6ED00F0CE
:1000180083EF01F08C828C90060E326E300EE82E43
:10002800FED7322EFCD700D0000E336E04D0FF0E60
:100038008CEC01F0332A0B0E3364F9D700D08C8096
:1000480000D08C9000D0060E326E300EE82EFED70F
:10005800322EFCD700D0CA948C928C908C94EB0EE4
:10006800016E000E026E000E036E000E046E000E8E
:10007800056E000E066E000E076E000E086E000E6E
:10008800096E000E0A6E000E0B6E000E0C6E000E4E
:100098000D6E000E0E6E000E0F6EEB0E106E000E43
:1000A800346E04D0000E8CEC01F0342A170E346440
:1000B800F9D700D08C8000D08C9000D0800E8CECCA
:1000C80001F0120000D0CA948C928C908C94000E8F
:1000D800356E000E366E3CD0355036C032F0336A7D
:1000E8003226000E3322010E3224D96E000E332040
:1000F800DA6EDF50346E34380F0B8CEC01F035506B
:1001080036C032F0336A3226000E3322010E322412
:10011800D96E000E3320DA6EDF50346E3438F00BAF
:100128008CEC01F0365035C032F0336A3226000EBE
:100138003322010E3226000E3322010E3224D96EEC
:10014800000E3320DA6EDF508CEC01F0352A362AA7
:10015800070E3664C1D700D08C8000D08C9000D0B8
:10016800CA8412000600EACF26F0E1CF27F0E2CFDA
:1001780028F0D9CF29F0DACF2AF0F3CF2BF0F4CF3B
:100188002CF0F6CF2DF0F7CF2EF0F8CF2FF0F5CFDB
:1001980030F09DB29EA212D02250800A800F7D0EB0
:1001A800D8B4215CD8A007D08C8400D08C94000EE1
:1001B800226E000E216E214A222A9E9230C0F5FF3F
:1001C8002FC0F8FF2EC0F7FF2DC0F6FF2CC0F4FF9C
:1001D8002BC0F3FF2AC0DAFF29C0D9FF28C0E2FFED
:1001E80027C0E1FF26C0EAFF25C0E9FF24C0FBFFC6
:1001F80023C0FAFF1100000E956E000E836E200ECC
:10020800936E000E816E0F0E926E0F0E806E080EAA
:10021800966E000E846E5DEC01F0000E226E000EEC
:10022800216E9D82F28CF28ECA9478EC01F00EEC6D
:1002380000F066EC00F0CA848C8645EC01F08C96E0
:1002480045EC01F0000E316E000E6BEC01F066EC2F
:1002580000F045EC01F045EC01F045EC01F045EC0F
:1002680001F0B40E316E000E6BEC01F066EC00F09C
:1002780045EC01F045EC01F045EC01F045EC01F0EE
:10028800DBD7000E336E000E326E3350800A800FBB
:10029800320ED8B4325CD8B00BD01A0E316EF80ECC
:1002A800E82EFED7312EFCD700D0324A332AEDD7BC
:1002B8001200040ECB6E7D0ECA6E020EBE6E2C0EA0
:1002C800BD6E000E946E000E826ECA941200326EDD
:1002D8003250010D010EF324D96E000EF420DA6EAF
:1002E8003150370FDF6E1200C79EC78CC698C69074
:1002F800C692C694C696C68A949A9496120000EE40
:1003080001F0220EEE6AE806FDE10001FFEF00F0C1
:0A031800316E31C0C9FF00D01200A1
:020000040020DA
:08000000FFFFFFFFFFFFFFFF00
:020000040030CA
:0E000000FF02191EFF8381FF0FC00FE00F40AB
:00000001FF
