:040000000CEF00F011
:10000800FACF01F0FBCF02F0E9CF03F0D0ED01F019
:10001800BCEF02F0060E116E300EE82EFED7112E40
:10002800FCD700F0CA948C928C908C94116EEB0ED5
:10003800186E1150116E000E196E1150116E000ECF
:100048001A6E1150116E000E1B6E1150116E000EBB
:100058001C6E1150116E000E1D6E1150116E000EA7
:100068001E6E1150116E000E1F6E1150116E000E93
:10007800206E1150116E000E216E1150116E000E7F
:10008800226E1150116E000E236E1150116E000E6B
:10009800246E1150116E000E256E1150116E000E57
:1000A800266E1150116EEB0E276E1150116E000E58
:1000B8000F6E1150A6EC02F0116E000E0F6E11506B
:1000C800A6EC02F0116E000E0F6E1150A6EC02F0B5
:1000D800116E000E0F6E1150A6EC02F0116E000E9C
:1000E8000F6E1150A6EC02F0116E000E0F6E11503B
:1000F800A6EC02F0116E000E0F6E1150A6EC02F085
:10010800116E000E0F6E1150A6EC02F0116E000E6B
:100118000F6E1150A6EC02F0116E000E0F6E11500A
:10012800A6EC02F0116E000E0F6E1150A6EC02F054
:10013800116E000E0F6E1150A6EC02F0116E000E3B
:100148000F6E1150A6EC02F0116E000E0F6E1150DA
:10015800A6EC02F0116E000E0F6E1150A6EC02F024
:10016800116E000E0F6E1150A6EC02F0116E000E0B
:100178000F6E1150A6EC02F0116E000E0F6E1150AA
:10018800A6EC02F0116E000E0F6E1150A6EC02F0F4
:10019800116E000E0F6E1150A6EC02F0116E000EDB
:1001A8000F6E1150A6EC02F0116E000E0F6E11507A
:1001B800A6EC02F0116E000E0F6E1150A6EC02F0C4
:1001C800116E000E0F6E1150A6EC02F0060E116EA5
:1001D800300EE82EFED7112EFCD700F08C804E0E84
:1001E800116EEB0EE82EFED7112EFCD78C90116EF7
:1001F800800E0F6E1150A6EC02F01200060E116E62
:10020800300EE82EFED7112EFCD700F0CA948C923F
:100218008C908C94116E000E146E1150116E000E9D
:10022800156E11503FD0145015C011F0126A1126E6
:10023800000E1222180E1124D96E000E1220DA6E4A
:10024800DF50136E13380F0B0F6EA6EC02F014502C
:1002580015C011F0126A1126000E1222180E112470
:10026800D96E000E1220DA6EDF50136E1338F00BC1
:100278000F6EA6EC02F0155014C011F0126A112688
:10028800000E1222010E1126000E1222180E112441
:10029800D96E000E1220DA6EDF500F6EA6EC02F057
:1002A800142A152A070E1564BED7060E116E300ED5
:1002B800E82EFED7112EFCD700F08C804E0E116E62
:1002C800EB0EE82EFED7112EFCD78C90CA841200B4
:1002D8008C828C90060E116E300EE82EFED7112EF1
:1002E800FCD700F0116EFF0E0F6E1150A6EC02F055
:1002F800116EFF0E0F6E1150A6EC02F0116EFF0E7C
:100308000F6E1150A6EC02F0116EFF0E0F6E115019
:10031800A6EC02F0116EFF0E0F6E1150A6EC02F063
:10032800116EFF0E0F6E1150A6EC02F0116EFF0E4B
:100338000F6E1150A6EC02F0116EFF0E0F6E1150E9
:10034800A6EC02F0116EFF0E0F6E1150A6EC02F033
:10035800116EFF0E0F6E1150A6EC02F0116EFF0E1B
:100368000F6E1150A6EC02F0116EFF0E0F6E1150B9
:10037800A6EC02F0060E116E300EE82EFED7112EF6
:10038800FCD700F08C804E0E116EEB0EE82EFED7D7
:10039800112EFCD78C9012000600EACF04F0E1CFB2
:1003A80005F0E2CF06F0D9CF07F0DACF08F0F3CFA7
:1003B80009F0F4CF0AF0F6CF0BF0F7CF0CF0F8CF36
:1003C8000DF0F5CF0EF09DA201D001D01AD09EA25B
:1003D80001D001D016D02950800A800FDE0ED8B483
:1003E800285CD8A001D001D008D08C8400D08C948F
:1003F800000E296E000E286E00D0284A292A9E92E7
:1004080000D00EC0F5FF0DC0F8FF0CC0F7FF0BC001
:10041800F6FF0AC0F4FF09C0F3FF08C0DAFF07C0FF
:10042800D9FF06C0E2FF05C0E1FF04C0EAFF03C030
:10043800E9FF02C0FBFF01C0FAFF1100000E956E34
:10044800000E836E200E936E000E816E0F0E926E5C
:100458000F0E806E080E966E000E846E8CEC02F005
:10046800000E296E000E286E9D82F28CF28ECA94C0
:10047800B1EC02F06CEC01F00EEC00F002EC01F0D3
:10048800CA848C8674EC02F08C9674EC02F0166EBA
:10049800000E0F6E1650176E000E106E17509AEC65
:1004A80002F002EC01F074EC02F074EC02F074EC6F
:1004B80002F074EC02F0166E000E0F6E1650176EF6
:1004C800B40E106E17509AEC02F002EC01F074ECC6
:1004D80002F074EC02F074EC02F074EC02F0D1D784
:1004E800000E116E000E106E1150800A800F320E31
:1004F800D8B4105CD8B00BD01A0E0F6EF80EE82ED8
:10050800FED70F2EFCD700F0104A112AEDD71200A3
:10051800040ECB6E450ECA6E020EBE6E2C0EBD6E5C
:10052800000E946E000E826ECA9412000F50010DD8
:10053800180EF324D96E000EF420DA6E1050370F1F
:10054800DF6E12000FC0C9FF030E106E970EE82E63
:10055800FED7102EFCD700D01200C79EC78CC698B5
:10056800C690C692C694C696C68A949A9496120065
:1005780000EE18F0120EEE6AE806FDE1000122EF27
:0205880002F07F
:020000040020DA
:08000000FFFFFFFFFFFFFFFF00
:020000040030CA
:0E000000FF02191EFF8381FF0FC00FE00F40AB
:00000001FF
