:040000000CEF00F011
:10000800FACF23F0FBCF24F0E9CF25F0EFED02F093
:100018008EEF03F0396E000E386E000E376EC5D0C5
:10002800000E386E000E376E000E3D6E000E3C6EF0
:100038003D50800A800F100ED8B43C5CD8B04BD02D
:10004800010E3C24D96E000E3D20DA6EDF50326E70
:10005800110E3C24D96E000E3D20DA6EDF503218A6
:10006800D8B434D0010E3C24D96E000E3D20DA6E8F
:10007800DF50326E110E3C24D96E000E3D20DA6E30
:10008800DF50325CD8B00FD0010E3C24D96E000E80
:100098003D20DA6E010E3C24E16E000E3D20E26E3A
:1000A800E750392411D0010E3C24D96E000E3D20B2
:1000B800DA6E010E3C24E16E000E3D20E26EE75040
:1000C800326E395000083224DF6E02D0374A382A9F
:1000D8003C4A3D2AADD700D08C928C908C94000E6F
:1000E8003A6E0F0E3B6E080E3B5CD8A052D03A50C9
:1000F800326E336A321E331E324A332A3B50346E14
:10010800356A3250342633503522010E3424D96EE4
:10011800000E3520DA6EDF50366E36380F0B97EC4E
:1001280003F03A50326E336A321E331E324A332A93
:100138003B50346E356A3250342633503522010E26
:100148003424D96E000E3520DA6EDF50366E36381C
:10015800F00B97EC03F03A50326E336A010E3226F8
:10016800000E3322321E331E324A332A3B50346E7D
:10017800356A3250342633503522010E3424D96E74
:10018800000E3520DA6EDF5097EC03F03A2A3B0672
:10019800AAD700D08C8000D08C9000D0820E326E0E
:1001A800DE0EE82EFED7322EFCD73750100A381054
:1001B800D8B4120035D7000E226E000E216E95902D
:1001C800959295948C828C90060E326E300EE82EA5
:1001D800FED7322EFCD700D0000E376E04D0FF0EAB
:1001E80097EC03F0372A0B0E3764F9D700D08C80D0
:1001F80000D08C9000D0060E326E300EE82EFED75E
:10020800322EFCD700D0CA948C928C908C94000E1D
:10021800016E000E026E000E036E000E046E000EDC
:10022800056E000E066E000E076E000E086E000EBC
:10023800096E000E0A6E000E0B6E000E0C6E000E9C
:100248000D6E910E0E6EB90E0F6EE60E106E000E4C
:100258003A6E000E396E3A50800A800F100ED8B4EC
:10026800395CD8B011D0010E3924D96E000E3A206D
:10027800DA6E110E3924E16E000E3A20E26EDFCFFD
:10028800E7FF394A3A2AE7D7000E386E0F0E3B6E61
:10029800080E3B5CD8A052D03850326E336A321EFA
:1002A800331E324A332A3B50346E356A3250342674
:1002B80033503522010E3424D96E000E3520DA6E03
:1002C800DF50366E36380F0B97EC03F03850326E2D
:1002D800336A321E331E324A332A3B50346E356A33
:1002E8003250342633503522010E3424D96E000E94
:1002F8003520DA6EDF50366E3638F00B97EC03F0A7
:100308003850326E336A010E3226000E3322321E06
:10031800331E324A332A3B50346E356A3250342603
:1003280033503522010E3424D96E000E3520DA6E92
:10033800DF5097EC03F0382A3B06AAD700D000D04C
:1003480000D08C8000D08C9000D0800E97EC03F009
:10035800CA841200386E3850010D010EF324D96E8C
:10036800000EF420DA6E3250370FDF6E3850010D70
:10037800110EF324D96E000EF420DA6E3250370FC6
:10038800DF6E00D08C928C908C94000E396E0F0E1C
:100398003A6E080E3A5CD8A052D03950336E346A9F
:1003A800331E341E334A342A3A50356E366A335077
:1003B800352634503622010E3524D96E000E3620EB
:1003C800DA6EDF50376E37380F0B97EC03F0395081
:1003D800336E346A331E341E334A342A3A50356E2B
:1003E800366A3350352634503622010E3524D96EFC
:1003F800000E3620DA6EDF50376E3738F00B97EC88
:1004080003F03950336E346A010E3326000E34225D
:10041800331E341E334A342A3A50356E366A335006
:10042800352634503622010E3524D96E000E36207A
:10043800DA6EDF5097EC03F0392A3A06AAD700D0D3
:100448008C8000D08C9000D0120000D08C928C90C0
:100458008C94000E376E0F0E386E080E385CD8A0DC
:1004680052D03750326E336A321E331E324A332A24
:100478003850346E356A3250342633503522010EE6
:100488003424D96E000E3520DA6EDF50366E3638D9
:100498000F0B97EC03F03750326E336A321E331E5F
:1004A800324A332A3850346E356A32503426335043
:1004B8003522010E3424D96E000E3520DA6EDF5055
:1004C800366E3638F00B97EC03F03750326E336ADD
:1004D800010E3226000E3322321E331E324A332AD0
:1004E8003850346E356A3250342633503522010E76
:1004F8003424D96E000E3520DA6EDF5097EC03F005
:10050800372A3806AAD700D08C8000D08C9000D02B
:10051800120068EC03F083EC03F0DFEC00F08C864B
:1005280050EC03F08C9650EC03F0AF0E316E0F0ECA
:1005380038EC03F0820E316E0E0E38EC03F05A0ED2
:10054800316E0D0E38EC03F029EC02F050EC03F09C
:1005580050EC03F050EC03F050EC03F0AF0E316EAA
:100568000F0E38EC03F0730E316E0E0E38EC03F0FC
:100578006E0E316E0D0E38EC03F029EC02F050ECE3
:1005880003F050EC03F050EC03F050EC03F0A00E35
:10059800316E0F0E76EC03F0640E316E0E0E76ECB3
:1005A80003F01E0E316E0D0E76EC03F0050E0EEC08
:1005B80000F050EC03F050EC03F050EC03F050EC7A
:1005C80003F07D0E326E0E0EAEEC01F050EC03F02F
:1005D80050EC03F0A4D70600EACF26F0E1CF27F0CD
:1005E800E2CF28F0D9CF29F0DACF2AF0F3CF2BF0D9
:1005F800F4CF2CF0F6CF2DF0F7CF2EF0F8CF2FF068
:10060800F5CF30F09DB29EA212D02250800A800F02
:100618007D0ED8B4215CD8A007D08C8400D08C94EF
:10062800000E226E000E216E214A222A9E9230C0B0
:10063800F5FF2FC0F8FF2EC0F7FF2DC0F6FF2CC026
:10064800F4FF2BC0F3FF2AC0DAFF29C0D9FF28C066
:10065800E2FF27C0E1FF26C0EAFF25C0E9FF24C06A
:10066800FBFF23C0FAFF1100326E3250010D010E5C
:10067800F324D96E000EF420DA6E3150370FDF6E96
:100688003250010D110EF324D96E000EF420DA6EEB
:100698003150370FDF6E1200000E336E000E326ECF
:1006A8003350800A800F320ED8B4325CD8B00BD0E9
:1006B8001A0E316EF80EE82EFED7312EFCD700D078
:1006C800324A332AEDD71200040ECB6E7D0ECA6E65
:1006D800020EBE6E2C0EBD6E94949D82F28CF28E2C
:1006E800CA941200326E3250010D110EF324D96EE5
:1006F800000EF420DA6E3150370FDF6E1200C79EFD
:10070800C78CC698C690C692C694C696C68A949A4E
:100718009496120000EE01F0220EEE6AE806FDE162
:1007280000018DEF02F0316E31C0C9FF00D000D05A
:020738001200AD
:020000040020DA
:08000000FFFFFFFFFFFFFFFF00
:020000040030CA
:0E000000FF02191EFF8381FF0FC00FE00F40AB
:00000001FF
