:040000000CEF00F011
:10000800FACF23F0FBCF24F0E9CF25F05AED03F027
:1000180051EF04F03550800AF36E800EF35C020E47
:10002800D8B4345CD8B004D0000E356E640E14D049
:100038003450020A3510D8A404D0000E356E320EA2
:100048000BD03550800A800F030ED8B4345CD8A08A
:1000580004D0000E356E0A0E346E000E3C6E000E93
:100068003B6EC1D0000E3C6E000E3B6E000E406E23
:10007800000E3F6E4050800A800F100ED8B43F5CCF
:10008800D8B048D0010E3F24D96E000E4020DA6E59
:10009800DF50366E110E3F24D96E000E4020DA6E06
:1000A800DF503618D8B431D0010E3F24D96E000E77
:1000B8004020DA6EDF50366E110E3F24D96E000EE6
:1000C8004020DA6EDF50365CD8B00FD0010E3F24E6
:1000D800D96E000E4020DA6E010E3F24E16E000E4C
:1000E8004020E26EE750050F0ED0010E3F24D96E76
:1000F800000E4020DA6E010E3F24E16E000E402013
:10010800E26EE750FB0FDF6E02D03B4A3C2A3F4AC3
:10011800402AB0D700D08C928C908C94000E3D6E03
:100128000F0E3E6E080E3E5CD8A052D03D50366E83
:10013800376A361E371E364A372A3E50386E396AB5
:100148003650382637503922010E3824D96E000E21
:100158003920DA6EDF503A6E3A380F0B5AEC04F059
:100168003D50366E376A361E371E364A372A3E509D
:10017800386E396A3650382637503922010E3824FD
:10018800D96E000E3920DA6EDF503A6E3A38F00B2D
:100198005AEC04F03D50366E376A010E3626000ED2
:1001A8003722361E371E364A372A3E50386E396A8D
:1001B8003650382637503922010E3824D96E000EB1
:1001C8003920DA6EDF505AEC04F03D2A3E06AAD7F1
:1001D80000D08C8000D08C9000D034C031F035C075
:1001E80032F028EC04F03B50100A3C10D8B412004E
:1001F80039D7000E226E000E216E95909592959437
:100208008C828C90060E326E300EE82EFED7322E7F
:10021800FCD700D0000E376E04D0FF0E5AEC04F065
:10022800372A0B0E3764F9D700D08C8000D08C9019
:1002380000D0060E326E300EE82EFED7322EFCD7D6
:1002480000D0CA948C928C908C94000E3B6E000E59
:100258003A6E3B50800A800F100ED8B43A5CD8B082
:1002680022D0010E3A24D96E000E3B20DA6EDF5000
:10027800D8B408D0010E3A24D96E000E3B20DA6EAD
:10028800000EDF6E010E3A24D96E000E3B20DA6EA6
:10029800110E3A24E16E000E3B20E26EDFCFE7FF3D
:1002A8003A4A3B2AD6D7000E386E0F0E396E080E22
:1002B800395CD8A052D03850326E336A321E331EA1
:1002C800324A332A3950346E356A32503426335024
:1002D8003522010E3424D96E000E3520DA6EDF5037
:1002E800366E36380F0B5AEC04F03850326E336ADB
:1002F800321E331E324A332A3950346E356A325030
:10030800342633503522010E3424D96E000E3520A0
:10031800DA6EDF50366E3638F00B5AEC04F038508F
:10032800326E336A010E3226000E3322321E331E1D
:10033800324A332A3950346E356A325034263350B3
:100348003522010E3424D96E000E3520DA6EDF50C6
:100358005AEC04F0382A3906AAD700D000D000D0C9
:100368008C8000D08C9000D0800E5AEC04F0CA84A7
:1003780012003A6E3228D8B43328D8B410D033508B
:10038800800A810FFF0ED8B4325CD8A008D0335051
:10039800800A800FB50ED8B4325CD8A014D03A5079
:1003A800010D010EF324D96E000EF420DA6E000E52
:1003B800DF6E3A50010D110EF324D96E000EF420B1
:1003C800DA6E000E15D03A50010D010EF324D96EE5
:1003D800000EF420DA6E3250370FDF6E3A50010DFE
:1003E800110EF324D96E000EF420DA6E3250370F56
:1003F800DF6E00D08C928C908C94000E396E0F0EAC
:100408003B6E080E3B5CD8A052D03950346E356A2A
:10041800341E351E344A352A3B50366E376A3450FE
:10042800362635503722010E3624D96E000E372075
:10043800DA6EDF50386E38380F0B5AEC04F039504A
:10044800346E356A341E351E344A352A3B50366EB2
:10045800376A3450362635503722010E3624D96E85
:10046800000E3720DA6EDF50386E3838F00B5AEC51
:1004780004F03950346E356A010E3426000E3522E8
:10048800341E351E344A352A3B50366E376A34508E
:10049800362635503722010E3624D96E000E372005
:1004A800DA6EDF505AEC04F0392A3B06AAD700D09E
:1004B8008C8000D08C9000D0120038EC04F046EC10
:1004C80004F0FDEC00F08C8610EC04F08C9610EC37
:1004D80004F0000E326EAF0E316E0F0EA3EC03F077
:1004E800000E326E820E316E0E0EA3EC03F0000E7B
:1004F800326E5A0E316E0D0EA3EC03F0F6EC02F0DC
:1005080010EC04F010EC04F010EC04F010EC04F023
:10051800000E326EAF0E316E0F0EA3EC03F0000E1C
:10052800326E730E316E0E0EA3EC03F0000E326EB7
:100538006E0E316E0D0EA3EC03F0F6EC02F010EC2B
:1005480004F010EC04F010EC04F010EC04F0000ED1
:10055800326EA00E316E0F0EE4EC03F0000E326E18
:10056800640E316E0E0EE4EC03F0000E326E1E0EB9
:10057800316E0D0EE4EC03F0000E356E020E346E93
:100588000EEC00F010EC04F010EC04F010EC04F0A9
:1005980010EC04F0000E336E7D0E326E0E0EBDECC4
:1005A80001F010EC04F010EC04F0FF0E326E31682C
:1005B8000F0EA3EC03F0FF0E326E31680E0EA3ECA3
:1005C80003F0FF0E326E31680D0EA3EC03F0F6EC6B
:1005D80002F010EC04F010EC04F010EC04F010EC55
:1005E80004F071D700D08C928C908C94000E376EEA
:1005F8000F0E386E080E385CD8A052D03750326EC5
:10060800336A321E331E324A332A3850346E356A02
:100618003250342633503522010E3424D96E000E60
:100628003520DA6EDF50366E36380F0B5AEC04F090
:100638003750326E336A321E331E324A332A3850EC
:10064800346E356A3250342633503522010E342444
:10065800D96E000E3520DA6EDF50366E3638F00B64
:100668005AEC04F03750326E336A010E3226000E0F
:100678003322321E331E324A332A3850346E356ADA
:100688003250342633503522010E3424D96E000EF0
:100698003520DA6EDF505AEC04F0372A3806AAD72C
:1006A80000D08C8000D08C9000D012000600EACFD9
:1006B80026F0E1CF27F0E2CF28F0D9CF29F0DACF22
:1006C8002AF0F3CF2BF0F4CF2CF0F6CF2DF0F7CFA4
:1006D8002EF0F8CF2FF0F5CF30F09DB29EA212D0B9
:1006E8002250800A800F7D0ED8B4215CD8A007D094
:1006F8008C8400D08C94000E226E000E216E214A4C
:10070800222A9E9230C0F5FF2FC0F8FF2EC0F7FFB7
:100718002DC0F6FF2CC0F4FF2BC0F3FF2AC0DAFF70
:1007280029C0D9FF28C0E2FF27C0E1FF26C0EAFFA1
:1007380025C0E9FF24C0FBFF23C0FAFF1100336E78
:100748003128D8B43228D8B410D03250800A810F5A
:10075800FF0ED8B4315CD8A008D03250800A800F80
:10076800B50ED8B4315CD8A014D03350010D010EA9
:10077800F324D96E000EF420DA6E000EDF6E3350CB
:10078800010D110EF324D96E000EF420DA6E000E5E
:1007980015D03350010D010EF324D96E000EF4204C
:1007A800DA6E3150370FDF6E3350010D110EF3241E
:1007B800D96E000EF420DA6E3150370FDF6E12005A
:1007C800336E3128D8B43228D8B410D03250800AC9
:1007D800810FFF0ED8B4315CD8A008D03250800AFF
:1007E800800FB50ED8B4315CD8A00AD03350010DB3
:1007F800110EF324D96E000EF420DA6E000E0AD022
:100808003350010D110EF324D96E000EF420DA6E68
:100818003150370FDF6E1200000E336E000E326E4D
:100828003350800A800F320ED8B4325CD8B00BD067
:100838001A0E316EF80EE82EFED7312EFCD700D0F6
:10084800324A332AEDD712000AD0030E336E980EBF
:10085800E82EFED7332EFCD73106D8A03206325008
:100868003110D8B41200F1D7040ECB6E7D0ECA6ECB
:10087800020EBE6E2C0EBD6E94949D82F28CF28E8A
:10088800CA941200C79EC78CC698C690C692C694D2
:10089800C696C68A949A9496120000EE01F0220E2B
:1008A800EE6AE806FDE1000161EF02F0316E31C049
:0808B800C9FF00D000D01200BE
:020000040020DA
:08000000FFFFFFFFFFFFFFFF00
:020000040030CA
:0E000000FF02191EFF8381FF0FC00FE00F40AB
:00000001FF
