:040000000CEF00F011
:10000800FACF01F0FBCF02F0E9CF03F0B6ED00F034
:1000180083EF01F08C828C90060E106E300EE82E65
:10002800FED7102EFCD700D0000E116E04D0FF0EA4
:100038008CEC01F0112A0B0E1164F9D700D08C80DA
:1000480000D08C9000D0060E106E300EE82EFED731
:10005800102EFCD700D0CA948C928C908C94EB0E06
:10006800156E000E166E000E176E000E186E000E3E
:10007800196E000E1A6E000E1B6E000E1C6E000E1E
:100088001D6E000E1E6E000E1F6E000E206E000EFE
:10009800216E000E226E000E236EEB0E246E000EF3
:1000A800126E04D0000E8CEC01F0122A170E1264A6
:1000B800F9D700D08C8000D08C9000D0800E8CECCA
:1000C80001F0120000D0CA948C928C908C94000E8F
:1000D800136E000E146E3CD0135014C010F0116A49
:1000E8001026000E1122150E1024D96E000E1120B4
:1000F800DA6EDF50126E12380F0B8CEC01F01350D1
:1001080014C010F0116A1026000E1122150E1024CA
:10011800D96E000E1120DA6EDF50126E1238F00B15
:100128008CEC01F0145013C010F0116A1026000E68
:100138001122010E1026000E1122150E1024D96E60
:10014800000E1120DA6EDF508CEC01F0132A142A0D
:10015800070E1464C1D700D08C8000D08C9000D0DA
:10016800CA8412000600EACF04F0E1CF05F0E2CF1E
:1001780006F0D9CF07F0DACF08F0F3CF09F0F4CFC3
:100188000AF0F6CF0BF0F7CF0CF0F8CF0DF0F5CF63
:100198000EF09DB29EA212D02650800A800F7D0ECE
:1001A800D8B4255CD8A007D08C8400D08C94000EDD
:1001B800266E000E256E254A262A9E920EC0F5FF51
:1001C8000DC0F8FF0CC0F7FF0BC0F6FF0AC0F4FF24
:1001D80009C0F3FF08C0DAFF07C0D9FF06C0E2FF75
:1001E80005C0E1FF04C0EAFF03C0E9FF02C0FBFF4E
:1001F80001C0FAFF1100000E956E000E836E200EEE
:10020800936E000E816E0F0E926E0F0E806E080EAA
:10021800966E000E846E5DEC01F0000E266E000EE8
:10022800256E9D82F28CF28ECA9478EC01F00EEC69
:1002380000F066EC00F0CA848C8645EC01F08C96E0
:1002480045EC01F0000E0F6E000E6BEC01F066EC51
:1002580000F045EC01F045EC01F045EC01F045EC0F
:1002680001F0B40E0F6E000E6BEC01F066EC00F0BE
:1002780045EC01F045EC01F045EC01F045EC01F0EE
:10028800DBD7000E116E000E106E1150800A800F21
:10029800320ED8B4105CD8B00BD01A0E0F6EF80E10
:1002A800E82EFED70F2EFCD700D0104A112AEDD722
:1002B8001200040ECB6E7D0ECA6E020EBE6E2C0EA0
:1002C800BD6E000E946E000E826ECA941200106EFF
:1002D8001050010D150EF324D96E000EF420DA6EBD
:1002E8000F50370FDF6E1200C79EC78CC698C69096
:1002F800C692C694C696C68A949A9496120000EE40
:1003080015F0120EEE6AE806FDE10001FFEF00F0BD
:0A0318000F6E0FC0C9FF00D01200E5
:020000040020DA
:08000000FFFFFFFFFFFFFFFF00
:020000040030CA
:0E000000FF02191EFF8381FF0FC00FE00F40AB
:00000001FF
