:040000000CEF00F011
:10000800FACF23F0FBCF24F0E9CF25F010ED03F071
:10001800BFEF03F03550800AF36E800EF35C020EDA
:10002800D8B4345CD8B004D0000E356E640E14D049
:100038003450020A3510D8A404D0000E356E320EA2
:100048000BD03550800A800F030ED8B4345CD8A08A
:1000580004D0000E356E0A0E346E000E3C6E000E93
:100068003B6EC1D0000E3C6E000E3B6E000E406E23
:10007800000E3F6E4050800A800F100ED8B43F5CCF
:10008800D8B048D0010E3F24D96E000E4020DA6E59
:10009800DF50366E110E3F24D96E000E4020DA6E06
:1000A800DF503618D8B431D0010E3F24D96E000E77
:1000B8004020DA6EDF50366E110E3F24D96E000EE6
:1000C8004020DA6EDF50365CD8B00FD0010E3F24E6
:1000D800D96E000E4020DA6E010E3F24E16E000E4C
:1000E8004020E26EE750050F0ED0010E3F24D96E76
:1000F800000E4020DA6E010E3F24E16E000E402013
:10010800E26EE750FB0FDF6E02D03B4A3C2A3F4AC3
:10011800402AB0D700D08C928C908C94000E3D6E03
:100128000F0E3E6E080E3E5CD8A052D03D50366E83
:10013800376A361E371E364A372A3E50386E396AB5
:100148003650382637503922010E3824D96E000E21
:100158003920DA6EDF503A6E3A380F0BC8EC03F0EC
:100168003D50366E376A361E371E364A372A3E509D
:10017800386E396A3650382637503922010E3824FD
:10018800D96E000E3920DA6EDF503A6E3A38F00B2D
:10019800C8EC03F03D50366E376A010E3626000E65
:1001A8003722361E371E364A372A3E50386E396A8D
:1001B8003650382637503922010E3824D96E000EB1
:1001C8003920DA6EDF50C8EC03F03D2A3E06AAD784
:1001D80000D08C8000D08C9000D034C031F035C075
:1001E80032F089EC03F03B50100A3C10D8B41200EE
:1001F80039D7000E226E000E216E95909592959437
:100208008C828C90060E326E300EE82EFED7322E7F
:10021800FCD700D0000E376E04D0FF0EC8EC03F0F8
:10022800372A0B0E3764F9D700D08C8000D08C9019
:1002380000D0060E326E300EE82EFED7322EFCD7D6
:1002480000D0CA948C928C908C94000E016E000E93
:10025800026E000E036E000E046E000E056E000E98
:10026800066E000E076E000E086E000E096E000E78
:100278000A6E000E0B6E000E0C6E000E0D6E910EC7
:100288000E6EB90E0F6EE60E106E000E3A6E000E70
:10029800396E3A50800A800F100ED8B4395CD8B045
:1002A80011D0010E3924D96E000E3A20DA6E110EE3
:1002B8003924E16E000E3A20E26EDFCFE7FF394ABB
:1002C8003A2AE7D7000E386E0F0E3B6E080E3B5CDD
:1002D800D8A052D03850326E336A321E331E324A9A
:1002E800332A3B50346E356A325034263350352227
:1002F800010E3424D96E000E3520DA6EDF50366ECA
:1003080036380F0BC8EC03F03850326E336A321EA1
:10031800331E324A332A3B50346E356A3250342603
:1003280033503522010E3424D96E000E3520DA6E92
:10033800DF50366E3638F00BC8EC03F03850326EAA
:10034800336A010E3226000E3322321E331E324A21
:10035800332A3B50346E356A3250342633503522B6
:10036800010E3424D96E000E3520DA6EDF50C8EC49
:1003780003F0382A3B06AAD700D000D000D08C80E2
:1003880000D08C9000D0800EC8EC03F0CA84120014
:10039800386E3850010D010EF324D96E000EF4208A
:1003A800DA6E3250370FDF6E3850010D110EF3241C
:1003B800D96E000EF420DA6E3250370FDF6E00D09F
:1003C8008C928C908C94000E396E0F0E3A6E080E3B
:1003D8003A5CD8A052D03950336E346A331E341E7A
:1003E800334A342A3A50356E366A335035263450FB
:1003F8003622010E3524D96E000E3620DA6EDF5013
:10040800376E37380F0BC8EC03F03950336E346A47
:10041800331E341E334A342A3A50356E366A335006
:10042800352634503622010E3524D96E000E36207A
:10043800DA6EDF50376E3738F00BC8EC03F03950FE
:10044800336E346A010E3326000E3422331E341EF6
:10045800334A342A3A50356E366A3350352634508A
:100468003622010E3524D96E000E3620DA6EDF50A2
:10047800C8EC03F0392A3A06AAD700D08C8000D0FD
:100488008C9000D0120099EC03F0B4EC03F0FDEC72
:1004980000F08C8671EC03F08C9671EC03F0AF0ED3
:1004A800316E0F0E59EC03F0820E316E0E0E59ECC0
:1004B80003F05A0E316E0D0E59EC03F0ACEC02F05D
:1004C80071EC03F071EC03F071EC03F071EC03F0E4
:1004D800AF0E316E0F0E59EC03F0730E316E0E0E27
:1004E80059EC03F06E0E316E0D0E59EC03F0ACECC6
:1004F80002F071EC03F071EC03F071EC03F071ECB5
:1005080003F0A00E316E0F0EA7EC03F0640E316EEF
:100518000E0EA7EC03F01E0E316E0D0EA7EC03F0C5
:10052800000E356E020E346E0EEC00F071EC03F026
:1005380071EC03F071EC03F071EC03F07D0E326E98
:100548000E0ECCEC01F071EC03F071EC03F0A1D7C6
:1005580000D08C928C908C94000E376E0F0E386EF3
:10056800080E385CD8A052D03750326E336A321E2B
:10057800331E324A332A3850346E356A32503426A4
:1005880033503522010E3424D96E000E3520DA6E30
:10059800DF50366E36380F0BC8EC03F03750326E2A
:1005A800336A321E331E324A332A3850346E356A63
:1005B8003250342633503522010E3424D96E000EC1
:1005C8003520DA6EDF50366E3638F00BC8EC03F0A3
:1005D8003750326E336A010E3226000E3322321E35
:1005E800331E324A332A3850346E356A3250342634
:1005F80033503522010E3424D96E000E3520DA6EC0
:10060800DF50C8EC03F0372A3806AAD700D08C8010
:1006180000D08C9000D012000600EACF26F0E1CF7F
:1006280027F0E2CF28F0D9CF29F0DACF2AF0F3CF9C
:100638002BF0F4CF2CF0F6CF2DF0F7CF2EF0F8CF2B
:100648002FF0F5CF30F09DB29EA212D02250800A32
:10065800800F7D0ED8B4215CD8A007D08C8400D040
:100668008C94000E226E000E216E214A222A9E9240
:1006780030C0F5FF2FC0F8FF2EC0F7FF2DC0F6FFE2
:100688002CC0F4FF2BC0F3FF2AC0DAFF29C0D9FF22
:1006980028C0E2FF27C0E1FF26C0EAFF25C0E9FF26
:1006A80024C0FBFF23C0FAFF1100326E3250010D47
:1006B800010EF324D96E000EF420DA6E3150370F94
:1006C800DF6E3250010D110EF324D96E000EF420A6
:1006D800DA6E3150370FDF6E1200000E336E000EE7
:1006E800326E3350800A800F320ED8B4325CD8B0E4
:1006F8000BD01A0E316EF80EE82EFED7312EFCD72D
:1007080000D0324A332AEDD712000AD0030E336ED6
:10071800980EE82EFED7332EFCD73106D8A0320625
:1007280032503110D8B41200F1D7040ECB6E7D0EC2
:10073800CA6E020EBE6E2C0EBD6E94949D82F28C13
:10074800F28ECA941200326E3250010D110EF3244B
:10075800D96E000EF420DA6E3150370FDF6E1200BA
:10076800C79EC78CC698C690C692C694C696C68AB7
:10077800949A9496120000EE01F0220EEE6AE806B2
:10078800FDE1000147EF02F0316E31C0C9FF00D032
:0407980000D012007B
:020000040020DA
:08000000FFFFFFFFFFFFFFFF00
:020000040030CA
:0E000000FF02191EFF8381FF0FC00FE00F40AB
:00000001FF
