:040000000CEF00F011
:10000800FACF23F0FBCF24F0E9CF25F06FED01F014
:1000180034EF02F0376E000E366E000E356EAFD03C
:10002800000E366E000E356E000E3B6E000E3A6EF8
:100038003B50800A800F100ED8B43A5CD8B04BD031
:10004800010E3A24D96E000E3B20DA6EDF50326E74
:10005800110E3A24D96E000E3B20DA6EDF503218AA
:10006800D8B434D0010E3A24D96E000E3B20DA6E93
:10007800DF50326E110E3A24D96E000E3B20DA6E34
:10008800DF50325CD8B00FD0010E3A24D96E000E82
:100098003B20DA6E010E3A24E16E000E3B20E26E40
:1000A800E750372411D0010E3A24D96E000E3B20B8
:1000B800DA6E010E3A24E16E000E3B20E26EE75044
:1000C800326E375000083224DF6E02D0354A362AA5
:1000D8003A4A3B2AADD700D08C928C908C94000E73
:1000E800386E000E396E3CD0385039C032F0336A61
:1000F8003226000E3322010E3224D96E000E332030
:10010800DA6EDF50346E34380F0B3DEC02F03850A5
:1001180039C032F0336A3226000E3322010E3224FF
:10012800D96E000E3320DA6EDF50346E3438F00B9F
:100138003DEC02F0395038C032F0336A3226000EF6
:100148003322010E3226000E3322010E3224D96EDC
:10015800000E3320DA6EDF503DEC02F0382A392ADF
:10016800070E3964C1D700D08C8000D08C9000D0A5
:10017800820E326EDE0EE82EFED7322EFCD73550B8
:10018800100A3610D8B412004BD78C828C90060E09
:10019800326E300EE82EFED7322EFCD700D0000E7D
:1001A800336E04D0FF0E3DEC02F0332A0B0E33649D
:1001B800F9D700D08C8000D08C9000D0060E326E1B
:1001C800300EE82EFED7322EFCD700D0CA948C927F
:1001D8008C908C94EB0E016E000E026E000E036E76
:1001E800000E046E000E056E000E066E000E076E01
:1001F800000E086E000E096E000E0A6E000E0B6EE1
:10020800000E0C6E000E0D6E000E0E6E000E0F6EC0
:10021800000E106E000E346E04D0000E3DEC02F09D
:10022800342A170E3464F9D700D08C8000D08C9013
:1002380000D0800E3DEC02F0120000D08C928C9021
:100248008C94000E356E000E366E3CD0355036C09C
:1002580032F0336A3226000E3322010E3224D96E70
:10026800000E3320DA6EDF50346E34380F0B3DEC5D
:1002780002F0355036C032F0336A3226000E33228F
:10028800010E3224D96E000E3320DA6EDF50346E40
:100298003438F00B3DEC02F0365035C032F0336A9A
:1002A8003226000E3322010E3226000E3322010EB2
:1002B8003224D96E000E3320DA6EDF503DEC02F0A6
:1002C800352A362A070E3664C1D700D08C8000D074
:1002D8008C9000D012000600EACF26F0E1CF27F07C
:1002E800E2CF28F0D9CF29F0DACF2AF0F3CF2BF0DC
:1002F800F4CF2CF0F6CF2DF0F7CF2EF0F8CF2FF06B
:10030800F5CF30F09DB29EA212D02250800A800F05
:100318007D0ED8B4215CD8A007D08C8400D08C94F2
:10032800000E226E000E216E214A222A9E9230C0B3
:10033800F5FF2FC0F8FF2EC0F7FF2DC0F6FF2CC029
:10034800F4FF2BC0F3FF2AC0DAFF29C0D9FF28C069
:10035800E2FF27C0E1FF26C0EAFF25C0E9FF24C06D
:10036800FBFF23C0FAFF1100000E956E000E836E8E
:10037800200E936E000E816E0F0E926E0F0E806E21
:10038800080E966E000E846E0EEC02F0000E226EC1
:10039800000E216E9D82F28CF28ECA9429EC02F036
:1003A800C9EC00F021EC01F0CA848C86F6EC01F06F
:1003B8008C96F6EC01F0B40E316E000E1CEC02F0D7
:1003C80021EC01F0F6EC01F0F6EC01F0F6EC01F0AE
:1003D800F6EC01F0820E116E020E0EEC00F0F6EC57
:1003E80001F0E3D7000E336E000E326E3350800AF0
:1003F800800F320ED8B4325CD8B00BD01A0E316EE2
:10040800F80EE82EFED7312EFCD700D0324A332A18
:10041800EDD71200040ECB6E7D0ECA6E020EBE6EB4
:100428002C0EBD6E000E946E000E826ECA941200E1
:10043800326E3250010D010EF324D96E000EF420F5
:10044800DA6E3150370FDF6E1200C79EC78CC69820
:10045800C690C692C694C696C68A949A9496120076
:1004680000EE01F0220EEE6AE806FDE10001B8EFA9
:0C04780001F0316E31C0C9FF00D012004D
:020000040020DA
:08000000FFFFFFFFFFFFFFFF00
:020000040030CA
:0E000000FF02191EFF8381FF0FC00FE00F40AB
:00000001FF
