:040000000CEF00F011
:10000800FACF01F0FBCF02F0E9CF03F03CED01F0AD
:1000180014EF02F08C828C90060E116E300EE82ED2
:10002800FED7112EFCD700D0FF0EFEEC01F0FF0E1C
:10003800FEEC01F0FF0EFEEC01F0FF0EFEEC01F00D
:10004800FF0EFEEC01F0FF0EFEEC01F0FF0EFEECE1
:1000580001F0FF0EFEEC01F0FF0EFEEC01F0FF0ECA
:10006800FEEC01F0FF0EFEEC01F0FF0EFEEC01F0DD
:10007800060E116E300EE82EFED7112EFCD700D0DA
:100088008C804E0E116EEB0EE82EFED7112EFCD78B
:1000980000F08C90060E116E300EE82EFED7112E51
:1000A800FCD700D0CA948C928C908C94EB0E166E70
:1000B800000E176E000E186E000E196E000E1A6EE6
:1000C800000E1B6E000E1C6E000E1D6E000E1E6EC6
:1000D800000E1F6E000E206E000E216E000E226EA6
:1000E800000E236E000E246EEB0E256E000EFEEC45
:1000F80001F0000EFEEC01F0000EFEEC01F0000E27
:10010800FEEC01F0000EFEEC01F0000EFEEC01F03A
:10011800000EFEEC01F0000EFEEC01F0000EFEEC0D
:1001280001F0000EFEEC01F0000EFEEC01F0000EF6
:10013800FEEC01F0000EFEEC01F0000EFEEC01F00A
:10014800000EFEEC01F0000EFEEC01F0000EFEECDD
:1001580001F0000EFEEC01F0000EFEEC01F0000EC6
:10016800FEEC01F0000EFEEC01F0000EFEEC01F0DA
:10017800000EFEEC01F0000EFEEC01F0060E116E12
:10018800300EE82EFED7112EFCD700D08C804E0EF4
:10019800116EEB0EE82EFED7112EFCD700F08C90D6
:1001A800800EFEEC01F01200060E116E300EE82EE5
:1001B800FED7112EFCD700D0CA948C928C908C94C8
:1001C800000E146E000E156E3CD0145015C011F0C0
:1001D800126A1126000E1222160E1124D96E000E74
:1001E8001220DA6EDF50136E13380F0BFEEC01F09D
:1001F800145015C011F0126A1126000E1222160EA4
:100208001124D96E000E1220DA6EDF50136E1338E7
:10021800F00BFEEC01F0155014C011F0126A112613
:10022800000E1222010E1126000E1222160E1124A3
:10023800D96E000E1220DA6EDF50FEEC01F0142A9F
:10024800152A070E1564C1D7060E116E300EE82E5A
:10025800FED7112EFCD700D08C804E0E116EEB0EFF
:10026800E82EFED7112EFCD700F08C90CA8412001D
:100278000600EACF04F0E1CF05F0E2CF06F0D9CFCF
:1002880007F0DACF08F0F3CF09F0F4CF0AF0F6CF91
:100298000BF0F7CF0CF0F8CF0DF0F5CF0EF09DB2C4
:1002A8009EA212D02750800A800F7D0ED8B4265CFB
:1002B800D8A007D08C8400D08C94000E276E000E36
:1002C800266E264A272A9E920EC0F5FF0DC0F8FF1B
:1002D8000CC0F7FF0BC0F6FF0AC0F4FF09C0F3FF1C
:1002E80008C0DAFF07C0D9FF06C0E2FF05C0E1FF7A
:1002F80004C0EAFF03C0E9FF02C0FBFF01C0FAFF28
:100308001100000E956E000E836E200E936E000E87
:10031800816E0F0E926E0F0E806E080E966E000E96
:10032800846EE3EC01F0000E276E000E266E9D82AF
:10033800F28CF28ECA9409EC02F00EEC00F0D8ECC4
:1003480000F0CA848C86CBEC01F08C96CBEC01F0E3
:10035800000E0F6E000EF1EC01F0D8EC00F0CBECC3
:1003680001F0CBEC01F0CBEC01F0CBEC01F0B40EDA
:100378000F6E000EF1EC01F0D8EC00F0CBEC01F0C0
:10038800CBEC01F0CBEC01F0CBEC01F0DBD7000EAD
:10039800116E000E106E1150800A800F320ED8B404
:1003A800105CD8B00BD01A0E0F6EF80EE82EFED7E0
:1003B8000F2EFCD700D0104A112AEDD71200040ED8
:1003C800CB6E7D0ECA6E020EBE6E2C0EBD6E000E7A
:1003D800946E000E826ECA941200106E1050010DB9
:1003E800160EF324D96E000EF420DA6E0F50370F74
:1003F800DF6E1200106E10C0C9FF030E0F6E980E4C
:10040800E82EFED70F2EFCD71200C79EC78CC698C1
:10041800C690C692C694C696C68A949A94961200B6
:1004280000EE16F0120EEE6AE806FDE1000185EF17
:0204380001F0D1
:020000040020DA
:08000000FFFFFFFFFFFFFFFF00
:020000040030CA
:0E000000FF02191EFF8381FF0FC00FE00F40AB
:00000001FF
